{
  "_format": "hh-sol-artifact-1",
  "contractName": "ContributionLedger",
  "sourceName": "contracts/ContributionLedger.sol",
  "abi": [
    {
      "anonymous": false,
      "inputs": [
        {
          "indexed": true,
          "internalType": "bytes32",
          "name": "recordId",
          "type": "bytes32"
        },
        {
          "indexed": false,
          "internalType": "string",
          "name": "trainingJobId",
          "type": "string"
        },
        {
          "indexed": false,
          "internalType": "string",
          "name": "participantDid",
          "type": "string"
        },
        {
          "indexed": false,
          "internalType": "uint32",
          "name": "round",
          "type": "uint32"
        },
        {
          "indexed": false,
          "internalType": "uint256",
          "name": "score",
          "type": "uint256"
        }
      ],
      "name": "ContributionRecorded",
      "type": "event"
    },
    {
      "inputs": [
        {
          "internalType": "bytes32",
          "name": "recordId",
          "type": "bytes32"
        }
      ],
      "name": "getContribution",
      "outputs": [
        {
          "components": [
            {
              "internalType": "string",
              "name": "trainingJobId",
              "type": "string"
            },
            {
              "internalType": "string",
              "name": "participantDid",
              "type": "string"
            },
            {
              "internalType": "uint32",
              "name": "round",
              "type": "uint32"
            },
            {
              "internalType": "uint256",
              "name": "score",
              "type": "uint256"
            },
            {
              "internalType": "uint64",
              "name": "recordedAt",
              "type": "uint64"
            }
          ],
          "internalType": "struct ContributionLedger.ContributionRecord",
          "name": "",
          "type": "tuple"
        }
      ],
      "stateMutability": "view",
      "type": "function"
    },
    {
      "inputs": [
        {
          "internalType": "string",
          "name": "trainingJobId",
          "type": "string"
        },
        {
          "internalType": "string",
          "name": "participantDid",
          "type": "string"
        },
        {
          "internalType": "uint32",
          "name": "round",
          "type": "uint32"
        },
        {
          "internalType": "uint256",
          "name": "score",
          "type": "uint256"
        }
      ],
      "name": "recordContribution",
      "outputs": [
        {
          "internalType": "bytes32",
          "name": "",
          "type": "bytes32"
        }
      ],
      "stateMutability": "nonpayable",
      "type": "function"
    }
  ],
  "bytecode": "0x608060405234801561001057600080fd5b50610a51806100206000396000f3fe608060405234801561001057600080fd5b50600436106100365760003560e01c8063619b0b431461003b578063b0fa0db91461006b575b600080fd5b61005560048036038101906100509190610602565b61009b565b60405161006291906106c2565b60405180910390f35b61008560048036038101906100809190610709565b61028d565b604051610092919061088d565b60405180910390f35b60008087878787876040516020016100b795949392919061090b565b6040516020818303038152906040528051906020012090506040518060a0016040528089898080601f016020809104026020016040519081016040528093929190818152602001838380828437600081840152601f19601f82011690508083019250505050505050815260200187878080601f016020809104026020016040519081016040528093929190818152602001838380828437600081840152601f19601f8201169050808301925050505050505081526020018563ffffffff1681526020018481526020014267ffffffffffffffff1681525060008083815260200190815260200160002060008201518160000190805190602001906101bc92919061043f565b5060208201518160010190805190602001906101d992919061043f565b5060408201518160020160006101000a81548163ffffffff021916908363ffffffff1602179055506060820151816003015560808201518160040160006101000a81548167ffffffffffffffff021916908367ffffffffffffffff160217905550905050807fa9f09467178cb8756c0bb3fec6b51045d990d540f54aa42d8809b64d16381d7589898989898960405161027796959493929190610963565b60405180910390a2809150509695505050505050565b6102956104c5565b6000808381526020019081526020016000206040518060a00160405290816000820180546102c2906109e9565b80601f01602080910402602001604051908101604052809291908181526020018280546102ee906109e9565b801561033b5780601f106103105761010080835404028352916020019161033b565b820191906000526020600020905b81548152906001019060200180831161031e57829003601f168201915b50505050508152602001600182018054610354906109e9565b80601f0160208091040260200160405190810160405280929190818152602001828054610380906109e9565b80156103cd5780601f106103a2576101008083540402835291602001916103cd565b820191906000526020600020905b8154815290600101906020018083116103b057829003601f168201915b505050505081526020016002820160009054906101000a900463ffffffff1663ffffffff1663ffffffff168152602001600382015481526020016004820160009054906101000a900467ffffffffffffffff1667ffffffffffffffff1667ffffffffffffffff16815250509050919050565b82805461044b906109e9565b90600052602060002090601f01602090048101928261046d57600085556104b4565b82601f1061048657805160ff19168380011785556104b4565b828001600101855582156104b4579182015b828111156104b3578251825591602001919060010190610498565b5b5090506104c19190610504565b5090565b6040518060a001604052806060815260200160608152602001600063ffffffff16815260200160008152602001600067ffffffffffffffff1681525090565b5b8082111561051d576000816000905550600101610505565b5090565b600080fd5b600080fd5b600080fd5b600080fd5b600080fd5b60008083601f8401126105505761054f61052b565b5b8235905067ffffffffffffffff81111561056d5761056c610530565b5b60208301915083600182028301111561058957610588610535565b5b9250929050565b600063ffffffff82169050919050565b6105a981610590565b81146105b457600080fd5b50565b6000813590506105c6816105a0565b92915050565b6000819050919050565b6105df816105cc565b81146105ea57600080fd5b50565b6000813590506105fc816105d6565b92915050565b6000806000806000806080878903121561061f5761061e610521565b5b600087013567ffffffffffffffff81111561063d5761063c610526565b5b61064989828a0161053a565b9650965050602087013567ffffffffffffffff81111561066c5761066b610526565b5b61067889828a0161053a565b9450945050604061068b89828a016105b7565b925050606061069c89828a016105ed565b9150509295509295509295565b6000819050919050565b6106bc816106a9565b82525050565b60006020820190506106d760008301846106b3565b92915050565b6106e6816106a9565b81146106f157600080fd5b50565b600081359050610703816106dd565b92915050565b60006020828403121561071f5761071e610521565b5b600061072d848285016106f4565b91505092915050565b600081519050919050565b600082825260208201905092915050565b60005b83811015610770578082015181840152602081019050610755565b8381111561077f576000848401525b50505050565b6000601f19601f8301169050919050565b60006107a182610736565b6107ab8185610741565b93506107bb818560208601610752565b6107c481610785565b840191505092915050565b6107d881610590565b82525050565b6107e7816105cc565b82525050565b600067ffffffffffffffff82169050919050565b61080a816107ed565b82525050565b600060a083016000830151848203600086015261082d8282610796565b915050602083015184820360208601526108478282610796565b915050604083015161085c60408601826107cf565b50606083015161086f60608601826107de565b5060808301516108826080860182610801565b508091505092915050565b600060208201905081810360008301526108a78184610810565b905092915050565b600082825260208201905092915050565b82818337600083830152505050565b60006108db83856108af565b93506108e88385846108c0565b6108f183610785565b840190509392505050565b61090581610590565b82525050565b600060608201905081810360008301526109268187896108cf565b9050818103602083015261093b8185876108cf565b905061094a60408301846108fc565b9695505050505050565b61095d816105cc565b82525050565b6000608082019050818103600083015261097e81888a6108cf565b905081810360208301526109938186886108cf565b90506109a260408301856108fc565b6109af6060830184610954565b979650505050505050565b7f4e487b7100000000000000000000000000000000000000000000000000000000600052602260045260246000fd5b60006002820490506001821680610a0157607f821691505b60208210811415610a1557610a146109ba565b5b5091905056fea2646970667358221220a2b081e8db92c8a84e4dd64d9ebf7ebe95ec5c423e5eddb7c37f381ffd809cf364736f6c634300080b0033",
  "linkReferences": {},
  "deployedLinkReferences": {}
}