{
  "_format": "hh-sol-artifact-1",
  "contractName": "AccessControl",
  "sourceName": "contracts/AccessControl.sol",
  "abi": [
    {
      "anonymous": false,
      "inputs": [
        {
          "indexed": true,
          "internalType": "bytes32",
          "name": "grantId",
          "type": "bytes32"
        },
        {
          "indexed": false,
          "internalType": "string",
          "name": "datasetId",
          "type": "string"
        },
        {
          "indexed": false,
          "internalType": "string",
          "name": "subjectDid",
          "type": "string"
        },
        {
          "indexed": false,
          "internalType": "string",
          "name": "purpose",
          "type": "string"
        },
        {
          "indexed": false,
          "internalType": "uint64",
          "name": "expiresAt",
          "type": "uint64"
        }
      ],
      "name": "AccessGranted",
      "type": "event"
    },
    {
      "anonymous": false,
      "inputs": [
        {
          "indexed": true,
          "internalType": "bytes32",
          "name": "grantId",
          "type": "bytes32"
        },
        {
          "indexed": false,
          "internalType": "string",
          "name": "datasetId",
          "type": "string"
        },
        {
          "indexed": false,
          "internalType": "string",
          "name": "subjectDid",
          "type": "string"
        }
      ],
      "name": "AccessRevoked",
      "type": "event"
    },
    {
      "inputs": [
        {
          "internalType": "bytes32",
          "name": "grantId",
          "type": "bytes32"
        }
      ],
      "name": "getGrant",
      "outputs": [
        {
          "components": [
            {
              "internalType": "string",
              "name": "datasetId",
              "type": "string"
            },
            {
              "internalType": "string",
              "name": "subjectDid",
              "type": "string"
            },
            {
              "internalType": "string",
              "name": "purpose",
              "type": "string"
            },
            {
              "internalType": "uint64",
              "name": "expiresAt",
              "type": "uint64"
            },
            {
              "internalType": "bool",
              "name": "active",
              "type": "bool"
            }
          ],
          "internalType": "struct AccessControl.AccessGrant",
          "name": "",
          "type": "tuple"
        }
      ],
      "stateMutability": "view",
      "type": "function"
    },
    {
      "inputs": [
        {
          "internalType": "string",
          "name": "datasetId",
          "type": "string"
        },
        {
          "internalType": "string",
          "name": "subjectDid",
          "type": "string"
        },
        {
          "internalType": "string",
          "name": "purpose",
          "type": "string"
        },
        {
          "internalType": "uint64",
          "name": "expiresAt",
          "type": "uint64"
        }
      ],
      "name": "grantAccess",
      "outputs": [
        {
          "internalType": "bytes32",
          "name": "",
          "type": "bytes32"
        }
      ],
      "stateMutability": "nonpayable",
      "type": "function"
    },
    {
      "inputs": [
        {
          "internalType": "bytes32",
          "name": "grantId",
          "type": "bytes32"
        }
      ],
      "name": "revokeAccess",
      "outputs": [],
      "stateMutability": "nonpayable",
      "type": "function"
    }
  ],
  "bytecode": "0x608060405234801561001057600080fd5b50610cd6806100206000396000f3fe608060405234801561001057600080fd5b50600436106100415760003560e01c8063b1263ada14610046578063e483ac0414610062578063f663661b14610092575b600080fd5b610060600480360381019061005b919061071d565b6100c2565b005b61007c6004803603810190610077919061071d565b61018a565b60405161008991906108a5565b60405180910390f35b6100ac60048036038101906100a79190610958565b6103b9565b6040516100b99190610a30565b60405180910390f35b600080600083815260200190815260200160002090508060030160089054906101000a900460ff16610129576040517f08c379a000000000000000000000000000000000000000000000000000000000815260040161012090610aa8565b60405180910390fd5b60008160030160086101000a81548160ff021916908315150217905550817f049e4304740997ebdfa246b3c649d87b280e9f97498298edcd3d17e874bfab28826000018360010160405161017e929190610bbe565b60405180910390a25050565b6101926105ff565b6000808381526020019081526020016000206040518060a00160405290816000820180546101bf90610af7565b80601f01602080910402602001604051908101604052809291908181526020018280546101eb90610af7565b80156102385780601f1061020d57610100808354040283529160200191610238565b820191906000526020600020905b81548152906001019060200180831161021b57829003601f168201915b5050505050815260200160018201805461025190610af7565b80601f016020809104026020016040519081016040528092919081815260200182805461027d90610af7565b80156102ca5780601f1061029f576101008083540402835291602001916102ca565b820191906000526020600020905b8154815290600101906020018083116102ad57829003601f168201915b505050505081526020016002820180546102e390610af7565b80601f016020809104026020016040519081016040528092919081815260200182805461030f90610af7565b801561035c5780601f106103315761010080835404028352916020019161035c565b820191906000526020600020905b81548152906001019060200180831161033f57829003601f168201915b505050505081526020016003820160009054906101000a900467ffffffffffffffff1667ffffffffffffffff1667ffffffffffffffff1681526020016003820160089054906101000a900460ff1615151515815250509050919050565b600080888888888888886040516020016103d99796959493929190610c40565b6040516020818303038152906040528051906020012090506040518060a001604052808a8a8080601f016020809104026020016040519081016040528093929190818152602001838380828437600081840152601f19601f82011690508083019250505050505050815260200188888080601f016020809104026020016040519081016040528093929190818152602001838380828437600081840152601f19601f82011690508083019250505050505050815260200186868080601f016020809104026020016040519081016040528093929190818152602001838380828437600081840152601f19601f8201169050808301925050505050505081526020018467ffffffffffffffff16815260200160011515815250600080838152602001908152602001600020600082015181600001908051906020019061051f92919061063a565b50602082015181600101908051906020019061053c92919061063a565b50604082015181600201908051906020019061055992919061063a565b5060608201518160030160006101000a81548167ffffffffffffffff021916908367ffffffffffffffff16021790555060808201518160030160086101000a81548160ff021916908315150217905550905050807f270bee3b20244fe75deb3f34bce7513ca765195c2f18014804533e6212866bfb8a8a8a8a8a8a8a6040516105e89796959493929190610c40565b60405180910390a280915050979650505050505050565b6040518060a00160405280606081526020016060815260200160608152602001600067ffffffffffffffff1681526020016000151581525090565b82805461064690610af7565b90600052602060002090601f01602090048101928261066857600085556106af565b82601f1061068157805160ff19168380011785556106af565b828001600101855582156106af579182015b828111156106ae578251825591602001919060010190610693565b5b5090506106bc91906106c0565b5090565b5b808211156106d95760008160009055506001016106c1565b5090565b600080fd5b600080fd5b6000819050919050565b6106fa816106e7565b811461070557600080fd5b50565b600081359050610717816106f1565b92915050565b600060208284031215610733576107326106dd565b5b600061074184828501610708565b91505092915050565b600081519050919050565b600082825260208201905092915050565b60005b83811015610784578082015181840152602081019050610769565b83811115610793576000848401525b50505050565b6000601f19601f8301169050919050565b60006107b58261074a565b6107bf8185610755565b93506107cf818560208601610766565b6107d881610799565b840191505092915050565b600067ffffffffffffffff82169050919050565b610800816107e3565b82525050565b60008115159050919050565b61081b81610806565b82525050565b600060a083016000830151848203600086015261083e82826107aa565b9150506020830151848203602086015261085882826107aa565b9150506040830151848203604086015261087282826107aa565b915050606083015161088760608601826107f7565b50608083015161089a6080860182610812565b508091505092915050565b600060208201905081810360008301526108bf8184610821565b905092915050565b600080fd5b600080fd5b600080fd5b60008083601f8401126108ec576108eb6108c7565b5b8235905067ffffffffffffffff811115610909576109086108cc565b5b602083019150836001820283011115610925576109246108d1565b5b9250929050565b610935816107e3565b811461094057600080fd5b50565b6000813590506109528161092c565b92915050565b60008060008060008060006080888a031215610977576109766106dd565b5b600088013567ffffffffffffffff811115610995576109946106e2565b5b6109a18a828b016108d6565b9750975050602088013567ffffffffffffffff8111156109c4576109c36106e2565b5b6109d08a828b016108d6565b9550955050604088013567ffffffffffffffff8111156109f3576109f26106e2565b5b6109ff8a828b016108d6565b93509350506060610a128a828b01610943565b91505092959891949750929550565b610a2a816106e7565b82525050565b6000602082019050610a456000830184610a21565b92915050565b600082825260208201905092915050565b7f6772616e7420696e616374697665000000000000000000000000000000000000600082015250565b6000610a92600e83610a4b565b9150610a9d82610a5c565b602082019050919050565b60006020820190508181036000830152610ac181610a85565b9050919050565b7f4e487b7100000000000000000000000000000000000000000000000000000000600052602260045260246000fd5b60006002820490506001821680610b0f57607f821691505b60208210811415610b2357610b22610ac8565b5b50919050565b60008190508160005260206000209050919050565b60008154610b4b81610af7565b610b558186610a4b565b94506001821660008114610b705760018114610b8257610bb5565b60ff1983168652602086019350610bb5565b610b8b85610b29565b60005b83811015610bad57815481890152600182019150602081019050610b8e565b808801955050505b50505092915050565b60006040820190508181036000830152610bd88185610b3e565b90508181036020830152610bec8184610b3e565b90509392505050565b82818337600083830152505050565b6000610c108385610a4b565b9350610c1d838584610bf5565b610c2683610799565b840190509392505050565b610c3a816107e3565b82525050565b60006080820190508181036000830152610c5b81898b610c04565b90508181036020830152610c70818789610c04565b90508181036040830152610c85818587610c04565b9050610c946060830184610c31565b9897505050505050505056fea26469706673582212206d83c91b8396407b3120f928fc21bd12e1b62bccb98db02ec297278a4fbfab4d64736f6c634300080b0033",
  "linkReferences": {},
  "deployedLinkReferences": {}
}