{
  "_format": "hh-sol-artifact-1",
  "contractName": "DestroyManager",
  "sourceName": "contracts/DestroyManager.sol",
  "abi": [
    {
      "anonymous": false,
      "inputs": [
        {
          "indexed": true,
          "internalType": "string",
          "name": "datasetId",
          "type": "string"
        },
        {
          "indexed": false,
          "internalType": "string",
          "name": "operatorDid",
          "type": "string"
        },
        {
          "indexed": false,
          "internalType": "string",
          "name": "proofHash",
          "type": "string"
        },
        {
          "indexed": false,
          "internalType": "uint64",
          "name": "destroyedAt",
          "type": "uint64"
        }
      ],
      "name": "DataDestroyed",
      "type": "event"
    },
    {
      "inputs": [
        {
          "internalType": "string",
          "name": "datasetId",
          "type": "string"
        }
      ],
      "name": "getDestroyProof",
      "outputs": [
        {
          "components": [
            {
              "internalType": "string",
              "name": "datasetId",
              "type": "string"
            },
            {
              "internalType": "string",
              "name": "operatorDid",
              "type": "string"
            },
            {
              "internalType": "string",
              "name": "proofHash",
              "type": "string"
            },
            {
              "internalType": "uint64",
              "name": "destroyedAt",
              "type": "uint64"
            }
          ],
          "internalType": "struct DestroyManager.DestroyProof",
          "name": "",
          "type": "tuple"
        }
      ],
      "stateMutability": "view",
      "type": "function"
    },
    {
      "inputs": [
        {
          "internalType": "string",
          "name": "datasetId",
          "type": "string"
        },
        {
          "internalType": "string",
          "name": "operatorDid",
          "type": "string"
        },
        {
          "internalType": "string",
          "name": "proofHash",
          "type": "string"
        }
      ],
      "name": "submitDestroyProof",
      "outputs": [],
      "stateMutability": "nonpayable",
      "type": "function"
    }
  ],
  "bytecode": "0x608060405234801561001057600080fd5b506109c2806100206000396000f3fe608060405234801561001057600080fd5b50600436106100365760003560e01c8063428d4b121461003b578063e7eb058b1461006b575b600080fd5b610055600480360381019061005091906105ed565b610087565b6040516100629190610767565b60405180910390f35b61008560048036038101906100809190610789565b6102aa565b005b61008f6104a9565b600083836040516100a192919061087c565b90815260200160405180910390206040518060800160405290816000820180546100ca906108c4565b80601f01602080910402602001604051908101604052809291908181526020018280546100f6906108c4565b80156101435780601f1061011857610100808354040283529160200191610143565b820191906000526020600020905b81548152906001019060200180831161012657829003601f168201915b5050505050815260200160018201805461015c906108c4565b80601f0160208091040260200160405190810160405280929190818152602001828054610188906108c4565b80156101d55780601f106101aa576101008083540402835291602001916101d5565b820191906000526020600020905b8154815290600101906020018083116101b857829003601f168201915b505050505081526020016002820180546101ee906108c4565b80601f016020809104026020016040519081016040528092919081815260200182805461021a906108c4565b80156102675780601f1061023c57610100808354040283529160200191610267565b820191906000526020600020905b81548152906001019060200180831161024a57829003601f168201915b505050505081526020016003820160009054906101000a900467ffffffffffffffff1667ffffffffffffffff1667ffffffffffffffff1681525050905092915050565b604051806080016040528087878080601f016020809104026020016040519081016040528093929190818152602001838380828437600081840152601f19601f82011690508083019250505050505050815260200185858080601f016020809104026020016040519081016040528093929190818152602001838380828437600081840152601f19601f82011690508083019250505050505050815260200183838080601f016020809104026020016040519081016040528093929190818152602001838380828437600081840152601f19601f8201169050808301925050505050505081526020014267ffffffffffffffff16815250600087876040516103b392919061087c565b908152602001604051809103902060008201518160000190805190602001906103dd9291906104db565b5060208201518160010190805190602001906103fa9291906104db565b5060408201518160020190805190602001906104179291906104db565b5060608201518160030160006101000a81548167ffffffffffffffff021916908367ffffffffffffffff160217905550905050858560405161045a92919061087c565b60405180910390207f02edce3bd5313d819572c0b770437712f08fb6b5af0eb061fccad9d251afa02d8585858542604051610499959493929190610943565b60405180910390a2505050505050565b6040518060800160405280606081526020016060815260200160608152602001600067ffffffffffffffff1681525090565b8280546104e7906108c4565b90600052602060002090601f0160209004810192826105095760008555610550565b82601f1061052257805160ff1916838001178555610550565b82800160010185558215610550579182015b8281111561054f578251825591602001919060010190610534565b5b50905061055d9190610561565b5090565b5b8082111561057a576000816000905550600101610562565b5090565b600080fd5b600080fd5b600080fd5b600080fd5b600080fd5b60008083601f8401126105ad576105ac610588565b5b8235905067ffffffffffffffff8111156105ca576105c961058d565b5b6020830191508360018202830111156105e6576105e5610592565b5b9250929050565b600080602083850312156106045761060361057e565b5b600083013567ffffffffffffffff81111561062257610621610583565b5b61062e85828601610597565b92509250509250929050565b600081519050919050565b600082825260208201905092915050565b60005b83811015610674578082015181840152602081019050610659565b83811115610683576000848401525b50505050565b6000601f19601f8301169050919050565b60006106a58261063a565b6106af8185610645565b93506106bf818560208601610656565b6106c881610689565b840191505092915050565b600067ffffffffffffffff82169050919050565b6106f0816106d3565b82525050565b60006080830160008301518482036000860152610713828261069a565b9150506020830151848203602086015261072d828261069a565b91505060408301518482036040860152610747828261069a565b915050606083015161075c60608601826106e7565b508091505092915050565b6000602082019050818103600083015261078181846106f6565b905092915050565b600080600080600080606087890312156107a6576107a561057e565b5b600087013567ffffffffffffffff8111156107c4576107c3610583565b5b6107d089828a01610597565b9650965050602087013567ffffffffffffffff8111156107f3576107f2610583565b5b6107ff89828a01610597565b9450945050604087013567ffffffffffffffff81111561082257610821610583565b5b61082e89828a01610597565b92509250509295509295509295565b600081905092915050565b82818337600083830152505050565b6000610863838561083d565b9350610870838584610848565b82840190509392505050565b6000610889828486610857565b91508190509392505050565b7f4e487b7100000000000000000000000000000000000000000000000000000000600052602260045260246000fd5b600060028204905060018216806108dc57607f821691505b602082108114156108f0576108ef610895565b5b50919050565b600082825260208201905092915050565b600061091383856108f6565b9350610920838584610848565b61092983610689565b840190509392505050565b61093d816106d3565b82525050565b6000606082019050818103600083015261095e818789610907565b90508181036020830152610973818587610907565b90506109826040830184610934565b969550505050505056fea264697066735822122088496b17b62a7f7e861ea534a5280bb8944e0c3957b903145a26a13113498a1664736f6c634300080b0033",
  "linkReferences": {},
  "deployedLinkReferences": {}
}