{
  "_format": "hh-sol-artifact-1",
  "contractName": "DidRegistry",
  "sourceName": "contracts/DidRegistry.sol",
  "abi": [
    {
      "anonymous": false,
      "inputs": [
        {
          "indexed": true,
          "internalType": "string",
          "name": "did",
          "type": "string"
        },
        {
          "indexed": false,
          "internalType": "string",
          "name": "documentUri",
          "type": "string"
        },
        {
          "indexed": false,
          "internalType": "bool",
          "name": "active",
          "type": "bool"
        },
        {
          "indexed": false,
          "internalType": "uint64",
          "name": "updatedAt",
          "type": "uint64"
        }
      ],
      "name": "DidDocumentUpdated",
      "type": "event"
    },
    {
      "inputs": [
        {
          "internalType": "string",
          "name": "did",
          "type": "string"
        }
      ],
      "name": "getDidDocument",
      "outputs": [
        {
          "components": [
            {
              "internalType": "string",
              "name": "did",
              "type": "string"
            },
            {
              "internalType": "string",
              "name": "documentUri",
              "type": "string"
            },
            {
              "internalType": "bool",
              "name": "active",
              "type": "bool"
            },
            {
              "internalType": "uint64",
              "name": "updatedAt",
              "type": "uint64"
            }
          ],
          "internalType": "struct DidRegistry.DidDocumentRef",
          "name": "",
          "type": "tuple"
        }
      ],
      "stateMutability": "view",
      "type": "function"
    },
    {
      "inputs": [
        {
          "internalType": "string",
          "name": "did",
          "type": "string"
        },
        {
          "internalType": "string",
          "name": "documentUri",
          "type": "string"
        },
        {
          "internalType": "bool",
          "name": "active",
          "type": "bool"
        }
      ],
      "name": "upsertDidDocument",
      "outputs": [],
      "stateMutability": "nonpayable",
      "type": "function"
    }
  ],
  "bytecode": "0x608060405234801561001057600080fd5b5061093c806100206000396000f3fe608060405234801561001057600080fd5b50600436106100365760003560e01c806391ab48991461003b578063bb29928b1461006b575b600080fd5b61005560048036038101906100509190610540565b610087565b60405161006291906106ce565b60405180910390f35b6100856004803603810190610080919061071c565b610233565b005b61008f6103fa565b600083836040516100a19291906107f0565b90815260200160405180910390206040518060800160405290816000820180546100ca90610838565b80601f01602080910402602001604051908101604052809291908181526020018280546100f690610838565b80156101435780601f1061011857610100808354040283529160200191610143565b820191906000526020600020905b81548152906001019060200180831161012657829003601f168201915b5050505050815260200160018201805461015c90610838565b80601f016020809104026020016040519081016040528092919081815260200182805461018890610838565b80156101d55780601f106101aa576101008083540402835291602001916101d5565b820191906000526020600020905b8154815290600101906020018083116101b857829003601f168201915b505050505081526020016002820160009054906101000a900460ff161515151581526020016002820160019054906101000a900467ffffffffffffffff1667ffffffffffffffff1667ffffffffffffffff1681525050905092915050565b6000604051806080016040528087878080601f016020809104026020016040519081016040528093929190818152602001838380828437600081840152601f19601f82011690508083019250505050505050815260200185858080601f016020809104026020016040519081016040528093929190818152602001838380828437600081840152601f19601f82011690508083019250505050505050815260200183151581526020014267ffffffffffffffff16815250905080600087876040516102ff9291906107f0565b9081526020016040518091039020600082015181600001908051906020019061032992919061042e565b50602082015181600101908051906020019061034692919061042e565b5060408201518160020160006101000a81548160ff02191690831515021790555060608201518160020160016101000a81548167ffffffffffffffff021916908367ffffffffffffffff16021790555090505085856040516103a99291906107f0565b60405180910390207fca215b52af4287cab0e8750eaac51b65dd66d71ac93ee9f7d0d24379e9956f8785858585606001516040516103ea94939291906108c6565b60405180910390a2505050505050565b60405180608001604052806060815260200160608152602001600015158152602001600067ffffffffffffffff1681525090565b82805461043a90610838565b90600052602060002090601f01602090048101928261045c57600085556104a3565b82601f1061047557805160ff19168380011785556104a3565b828001600101855582156104a3579182015b828111156104a2578251825591602001919060010190610487565b5b5090506104b091906104b4565b5090565b5b808211156104cd5760008160009055506001016104b5565b5090565b600080fd5b600080fd5b600080fd5b600080fd5b600080fd5b60008083601f840112610500576104ff6104db565b5b8235905067ffffffffffffffff81111561051d5761051c6104e0565b5b602083019150836001820283011115610539576105386104e5565b5b9250929050565b60008060208385031215610557576105566104d1565b5b600083013567ffffffffffffffff811115610575576105746104d6565b5b610581858286016104ea565b92509250509250929050565b600081519050919050565b600082825260208201905092915050565b60005b838110156105c75780820151818401526020810190506105ac565b838111156105d6576000848401525b50505050565b6000601f19601f8301169050919050565b60006105f88261058d565b6106028185610598565b93506106128185602086016105a9565b61061b816105dc565b840191505092915050565b60008115159050919050565b61063b81610626565b82525050565b600067ffffffffffffffff82169050919050565b61065e81610641565b82525050565b6000608083016000830151848203600086015261068182826105ed565b9150506020830151848203602086015261069b82826105ed565b91505060408301516106b06040860182610632565b5060608301516106c36060860182610655565b508091505092915050565b600060208201905081810360008301526106e88184610664565b905092915050565b6106f981610626565b811461070457600080fd5b50565b600081359050610716816106f0565b92915050565b600080600080600060608688031215610738576107376104d1565b5b600086013567ffffffffffffffff811115610756576107556104d6565b5b610762888289016104ea565b9550955050602086013567ffffffffffffffff811115610785576107846104d6565b5b610791888289016104ea565b935093505060406107a488828901610707565b9150509295509295909350565b600081905092915050565b82818337600083830152505050565b60006107d783856107b1565b93506107e48385846107bc565b82840190509392505050565b60006107fd8284866107cb565b91508190509392505050565b7f4e487b7100000000000000000000000000000000000000000000000000000000600052602260045260246000fd5b6000600282049050600182168061085057607f821691505b6020821081141561086457610863610809565b5b50919050565b600082825260208201905092915050565b6000610887838561086a565b93506108948385846107bc565b61089d836105dc565b840190509392505050565b6108b181610626565b82525050565b6108c081610641565b82525050565b600060608201905081810360008301526108e181868861087b565b90506108f060208301856108a8565b6108fd60408301846108b7565b9594505050505056fea26469706673582212203d7b346a923f6b35172c45505dd8433d24b8d2dcecdcb9ac38ce276bfc21163264736f6c634300080b0033",
  "linkReferences": {},
  "deployedLinkReferences": {}
}