{
  "_format": "hh-sol-artifact-1",
  "contractName": "DataNotary",
  "sourceName": "contracts/DataNotary.sol",
  "abi": [
    {
      "anonymous": false,
      "inputs": [
        {
          "indexed": true,
          "internalType": "string",
          "name": "datasetId",
          "type": "string"
        },
        {
          "indexed": false,
          "internalType": "string",
          "name": "ownerDid",
          "type": "string"
        },
        {
          "indexed": false,
          "internalType": "string",
          "name": "sm3Hash",
          "type": "string"
        },
        {
          "indexed": false,
          "internalType": "string",
          "name": "ipfsCid",
          "type": "string"
        },
        {
          "indexed": false,
          "internalType": "uint64",
          "name": "registeredAt",
          "type": "uint64"
        }
      ],
      "name": "DataRegistered",
      "type": "event"
    },
    {
      "inputs": [
        {
          "internalType": "string",
          "name": "datasetId",
          "type": "string"
        }
      ],
      "name": "getDataAsset",
      "outputs": [
        {
          "components": [
            {
              "internalType": "string",
              "name": "datasetId",
              "type": "string"
            },
            {
              "internalType": "string",
              "name": "ownerDid",
              "type": "string"
            },
            {
              "internalType": "string",
              "name": "sm3Hash",
              "type": "string"
            },
            {
              "internalType": "string",
              "name": "ipfsCid",
              "type": "string"
            },
            {
              "internalType": "uint64",
              "name": "registeredAt",
              "type": "uint64"
            }
          ],
          "internalType": "struct DataNotary.DataAsset",
          "name": "",
          "type": "tuple"
        }
      ],
      "stateMutability": "view",
      "type": "function"
    },
    {
      "inputs": [
        {
          "internalType": "string",
          "name": "datasetId",
          "type": "string"
        },
        {
          "internalType": "string",
          "name": "ownerDid",
          "type": "string"
        },
        {
          "internalType": "string",
          "name": "sm3Hash",
          "type": "string"
        },
        {
          "internalType": "string",
          "name": "ipfsCid",
          "type": "string"
        }
      ],
      "name": "registerDataAsset",
      "outputs": [],
      "stateMutability": "nonpayable",
      "type": "function"
    }
  ],
  "bytecode": "0x608060405234801561001057600080fd5b50610cc7806100206000396000f3fe608060405234801561001057600080fd5b50600436106100365760003560e01c8063634f3ece1461003b578063cfb2b04514610057575b600080fd5b610055600480360381019061005091906107b4565b610087565b005b610071600480360381019061006c919061089d565b6103b4565b60405161007e9190610a31565b60405180910390f35b600088889050116100cd576040517f08c379a00000000000000000000000000000000000000000000000000000000081526004016100c490610ab0565b60405180910390fd5b60008089896040516100e0929190610b0f565b908152602001604051809103902060000180546100fc90610b57565b90501461013e576040517f08c379a000000000000000000000000000000000000000000000000000000000815260040161013590610bd5565b60405180910390fd5b60006040518060a001604052808a8a8080601f016020809104026020016040519081016040528093929190818152602001838380828437600081840152601f19601f82011690508083019250505050505050815260200188888080601f016020809104026020016040519081016040528093929190818152602001838380828437600081840152601f19601f82011690508083019250505050505050815260200186868080601f016020809104026020016040519081016040528093929190818152602001838380828437600081840152601f19601f82011690508083019250505050505050815260200184848080601f016020809104026020016040519081016040528093929190818152602001838380828437600081840152601f19601f8201169050808301925050505050505081526020014267ffffffffffffffff1681525090508060008a8a604051610296929190610b0f565b908152602001604051809103902060008201518160000190805190602001906102c0929190610669565b5060208201518160010190805190602001906102dd929190610669565b5060408201518160020190805190602001906102fa929190610669565b506060820151816003019080519060200190610317929190610669565b5060808201518160040160006101000a81548167ffffffffffffffff021916908367ffffffffffffffff160217905550905050888860405161035a929190610b0f565b60405180910390207fb8be7c961e6bf968a6310fa4d047ccc04d7c50466a5c8027cb1afe7124e34e4988888888888888608001516040516103a19796959493929190610c31565b60405180910390a2505050505050505050565b6103bc6106ef565b600083836040516103ce929190610b0f565b90815260200160405180910390206040518060a00160405290816000820180546103f790610b57565b80601f016020809104026020016040519081016040528092919081815260200182805461042390610b57565b80156104705780601f1061044557610100808354040283529160200191610470565b820191906000526020600020905b81548152906001019060200180831161045357829003601f168201915b5050505050815260200160018201805461048990610b57565b80601f01602080910402602001604051908101604052809291908181526020018280546104b590610b57565b80156105025780601f106104d757610100808354040283529160200191610502565b820191906000526020600020905b8154815290600101906020018083116104e557829003601f168201915b5050505050815260200160028201805461051b90610b57565b80601f016020809104026020016040519081016040528092919081815260200182805461054790610b57565b80156105945780601f1061056957610100808354040283529160200191610594565b820191906000526020600020905b81548152906001019060200180831161057757829003601f168201915b505050505081526020016003820180546105ad90610b57565b80601f01602080910402602001604051908101604052809291908181526020018280546105d990610b57565b80156106265780601f106105fb57610100808354040283529160200191610626565b820191906000526020600020905b81548152906001019060200180831161060957829003601f168201915b505050505081526020016004820160009054906101000a900467ffffffffffffffff1667ffffffffffffffff1667ffffffffffffffff1681525050905092915050565b82805461067590610b57565b90600052602060002090601f01602090048101928261069757600085556106de565b82601f106106b057805160ff19168380011785556106de565b828001600101855582156106de579182015b828111156106dd5782518255916020019190600101906106c2565b5b5090506106eb9190610728565b5090565b6040518060a0016040528060608152602001606081526020016060815260200160608152602001600067ffffffffffffffff1681525090565b5b80821115610741576000816000905550600101610729565b5090565b600080fd5b600080fd5b600080fd5b600080fd5b600080fd5b60008083601f8401126107745761077361074f565b5b8235905067ffffffffffffffff81111561079157610790610754565b5b6020830191508360018202830111156107ad576107ac610759565b5b9250929050565b6000806000806000806000806080898b0312156107d4576107d3610745565b5b600089013567ffffffffffffffff8111156107f2576107f161074a565b5b6107fe8b828c0161075e565b9850985050602089013567ffffffffffffffff8111156108215761082061074a565b5b61082d8b828c0161075e565b9650965050604089013567ffffffffffffffff8111156108505761084f61074a565b5b61085c8b828c0161075e565b9450945050606089013567ffffffffffffffff81111561087f5761087e61074a565b5b61088b8b828c0161075e565b92509250509295985092959890939650565b600080602083850312156108b4576108b3610745565b5b600083013567ffffffffffffffff8111156108d2576108d161074a565b5b6108de8582860161075e565b92509250509250929050565b600081519050919050565b600082825260208201905092915050565b60005b83811015610924578082015181840152602081019050610909565b83811115610933576000848401525b50505050565b6000601f19601f8301169050919050565b6000610955826108ea565b61095f81856108f5565b935061096f818560208601610906565b61097881610939565b840191505092915050565b600067ffffffffffffffff82169050919050565b6109a081610983565b82525050565b600060a08301600083015184820360008601526109c3828261094a565b915050602083015184820360208601526109dd828261094a565b915050604083015184820360408601526109f7828261094a565b91505060608301518482036060860152610a11828261094a565b9150506080830151610a266080860182610997565b508091505092915050565b60006020820190508181036000830152610a4b81846109a6565b905092915050565b600082825260208201905092915050565b7f6461746173657449642072657175697265640000000000000000000000000000600082015250565b6000610a9a601283610a53565b9150610aa582610a64565b602082019050919050565b60006020820190508181036000830152610ac981610a8d565b9050919050565b600081905092915050565b82818337600083830152505050565b6000610af68385610ad0565b9350610b03838584610adb565b82840190509392505050565b6000610b1c828486610aea565b91508190509392505050565b7f4e487b7100000000000000000000000000000000000000000000000000000000600052602260045260246000fd5b60006002820490506001821680610b6f57607f821691505b60208210811415610b8357610b82610b28565b5b50919050565b7f6461746173657420657869737473000000000000000000000000000000000000600082015250565b6000610bbf600e83610a53565b9150610bca82610b89565b602082019050919050565b60006020820190508181036000830152610bee81610bb2565b9050919050565b6000610c018385610a53565b9350610c0e838584610adb565b610c1783610939565b840190509392505050565b610c2b81610983565b82525050565b60006080820190508181036000830152610c4c81898b610bf5565b90508181036020830152610c61818789610bf5565b90508181036040830152610c76818587610bf5565b9050610c856060830184610c22565b9897505050505050505056fea26469706673582212207b4b2fe574388cda916547284c168c1e3b778b2dbf814c9ba7b95f8bc4fdb5b264736f6c634300080b0033",
  "linkReferences": {},
  "deployedLinkReferences": {}
}